{
  "_format": "hh-sol-artifact-1",
  "contractName": "CampaignFactory",
  "sourceName": "contracts/Campaign.sol",
  "abi": [
    {
      "anonymous": false,
      "inputs": [
        {
          "indexed": false,
          "internalType": "string",
          "name": "title",
          "type": "string"
        },
        {
          "indexed": false,
          "internalType": "uint256",
          "name": "requiredAmount",
          "type": "uint256"
        },
        {
          "indexed": true,
          "internalType": "address",
          "name": "owner",
          "type": "address"
        },
        {
          "indexed": false,
          "internalType": "address",
          "name": "campaignAddress",
          "type": "address"
        },
        {
          "indexed": false,
          "internalType": "string",
          "name": "imgURI",
          "type": "string"
        },
        {
          "indexed": true,
          "internalType": "uint256",
          "name": "timestamp",
          "type": "uint256"
        }
      ],
      "name": "campaignCreated",
      "type": "event"
    },
    {
      "inputs": [
        {
          "internalType": "uint256",
          "name": "",
          "type": "uint256"
        }
      ],
      "name": "campaignAddresses",
      "outputs": [
        {
          "internalType": "contract Campaign",
          "name": "",
          "type": "address"
        }
      ],
      "stateMutability": "view",
      "type": "function"
    },
    {
      "inputs": [
        {
          "internalType": "string",
          "name": "_title",
          "type": "string"
        },
        {
          "internalType": "uint256",
          "name": "_requiredAmount",
          "type": "uint256"
        },
        {
          "internalType": "string",
          "name": "imgURI",
          "type": "string"
        },
        {
          "internalType": "string",
          "name": "storyURI",
          "type": "string"
        }
      ],
      "name": "createCampaign",
      "outputs": [],
      "stateMutability": "nonpayable",
      "type": "function"
    },
    {
      "inputs": [],
      "name": "getAll",
      "outputs": [
        {
          "internalType": "contract Campaign[]",
          "name": "",
          "type": "address[]"
        }
      ],
      "stateMutability": "view",
      "type": "function"
    }
  ],
  "bytecode": "0x608060405234801561001057600080fd5b506119a7806100206000396000f3fe60806040523480156200001157600080fd5b5060043610620000465760003560e01c80631b422e5f146200004b57806351b1f463146200008157806353ed514314620000a1575b600080fd5b620000696004803603810190620000639190620003e7565b620000c3565b60405162000078919062000540565b60405180910390f35b6200009f600480360381019062000099919062000330565b62000103565b005b620000ab62000209565b604051620000ba91906200051c565b60405180910390f35b60008181548110620000d457600080fd5b906000526020600020016000915054906101000a900473ffffffffffffffffffffffffffffffffffffffff1681565b60008484848433604051620001189062000299565b62000128959493929190620005b8565b604051809103906000f08015801562000145573d6000803e3d6000fd5b5090506000819080600181540180825580915050600190039060005260206000200160009091909190916101000a81548173ffffffffffffffffffffffffffffffffffffffff021916908373ffffffffffffffffffffffffffffffffffffffff160217905550423373ffffffffffffffffffffffffffffffffffffffff167f36ffb60c1868799efba0842a285b79646de938b48882d459cb033b2787e87e8587878588604051620001fa94939291906200055d565b60405180910390a35050505050565b606060008054806020026020016040519081016040528092919081815260200182805480156200028f57602002820191906000526020600020905b8160009054906101000a900473ffffffffffffffffffffffffffffffffffffffff1673ffffffffffffffffffffffffffffffffffffffff168152602001906001019080831162000244575b5050505050905090565b611158806200081a83390190565b6000620002be620002b88462000653565b6200062a565b905082815260208101848484011115620002d757600080fd5b620002e484828562000744565b509392505050565b600082601f830112620002fe57600080fd5b813562000310848260208601620002a7565b91505092915050565b6000813590506200032a81620007ff565b92915050565b600080600080608085870312156200034757600080fd5b600085013567ffffffffffffffff8111156200036257600080fd5b6200037087828801620002ec565b9450506020620003838782880162000319565b935050604085013567ffffffffffffffff811115620003a157600080fd5b620003af87828801620002ec565b925050606085013567ffffffffffffffff811115620003cd57600080fd5b620003db87828801620002ec565b91505092959194509250565b600060208284031215620003fa57600080fd5b60006200040a8482850162000319565b91505092915050565b6000620004218383620004a8565b60208301905092915050565b6200043881620006de565b82525050565b60006200044b8262000699565b620004578185620006bc565b9350620004648362000689565b8060005b838110156200049b5781516200047f888262000413565b97506200048c83620006af565b92505060018101905062000468565b5085935050505092915050565b620004b3816200071c565b82525050565b620004c4816200071c565b82525050565b6000620004d782620006a4565b620004e38185620006cd565b9350620004f581856020860162000753565b6200050081620007ee565b840191505092915050565b620005168162000712565b82525050565b600060208201905081810360008301526200053881846200043e565b905092915050565b6000602082019050620005576000830184620004b9565b92915050565b60006080820190508181036000830152620005798187620004ca565b90506200058a60208301866200050b565b6200059960408301856200042d565b8181036060830152620005ad8184620004ca565b905095945050505050565b600060a0820190508181036000830152620005d48188620004ca565b9050620005e560208301876200050b565b8181036040830152620005f98186620004ca565b905081810360608301526200060f8185620004ca565b90506200062060808301846200042d565b9695505050505050565b60006200063662000649565b905062000644828262000789565b919050565b6000604051905090565b600067ffffffffffffffff821115620006715762000670620007bf565b5b6200067c82620007ee565b9050602081019050919050565b6000819050602082019050919050565b600081519050919050565b600081519050919050565b6000602082019050919050565b600082825260208201905092915050565b600082825260208201905092915050565b6000620006eb82620006f2565b9050919050565b600073ffffffffffffffffffffffffffffffffffffffff82169050919050565b6000819050919050565b6000620007298262000730565b9050919050565b60006200073d82620006f2565b9050919050565b82818337600083830152505050565b60005b838110156200077357808201518184015260208101905062000756565b8381111562000783576000848401525b50505050565b6200079482620007ee565b810181811067ffffffffffffffff82111715620007b657620007b5620007bf565b5b80604052505050565b7f4e487b7100000000000000000000000000000000000000000000000000000000600052604160045260246000fd5b6000601f19601f8301169050919050565b6200080a8162000712565b81146200081657600080fd5b5056fe60806040526040518060400160405280600d81526020017f43616d706169676e20546573740000000000000000000000000000000000000081525060009080519060200190620000519291906200011a565b506001600855604051620011583803806200115883398181016040528101906200007c91906200026a565b8460009080519060200190620000949291906200011a565b50836001819055508260029080519060200190620000b49291906200011a565b508160039080519060200190620000cd9291906200011a565b5080600460006101000a81548173ffffffffffffffffffffffffffffffffffffffff021916908373ffffffffffffffffffffffffffffffffffffffff160217905550505050505062000519565b82805462000128906200040a565b90600052602060002090601f0160209004810192826200014c576000855562000198565b82601f106200016757805160ff191683800117855562000198565b8280016001018555821562000198579182015b82811115620001975782518255916020019190600101906200017a565b5b509050620001a79190620001ab565b5090565b5b80821115620001c6576000816000905550600101620001ac565b5090565b6000620001e1620001db8462000360565b62000337565b905082815260208101848484011115620001fa57600080fd5b62000207848285620003d4565b509392505050565b6000815190506200022081620004e5565b92915050565b600082601f8301126200023857600080fd5b81516200024a848260208601620001ca565b91505092915050565b6000815190506200026481620004ff565b92915050565b600080600080600060a086880312156200028357600080fd5b600086015167ffffffffffffffff8111156200029e57600080fd5b620002ac8882890162000226565b9550506020620002bf8882890162000253565b945050604086015167ffffffffffffffff811115620002dd57600080fd5b620002eb8882890162000226565b935050606086015167ffffffffffffffff8111156200030957600080fd5b620003178882890162000226565b92505060806200032a888289016200020f565b9150509295509295909350565b60006200034362000356565b905062000351828262000440565b919050565b6000604051905090565b600067ffffffffffffffff8211156200037e576200037d620004a5565b5b6200038982620004d4565b9050602081019050919050565b6000620003a382620003aa565b9050919050565b600073ffffffffffffffffffffffffffffffffffffffff82169050919050565b6000819050919050565b60005b83811015620003f4578082015181840152602081019050620003d7565b8381111562000404576000848401525b50505050565b600060028204905060018216806200042357607f821691505b602082108114156200043a576200043962000476565b5b50919050565b6200044b82620004d4565b810181811067ffffffffffffffff821117156200046d576200046c620004a5565b5b80604052505050565b7f4e487b7100000000000000000000000000000000000000000000000000000000600052602260045260246000fd5b7f4e487b7100000000000000000000000000000000000000000000000000000000600052604160045260246000fd5b6000601f19601f8301169050919050565b620004f08162000396565b8114620004fc57600080fd5b50565b6200050a81620003ca565b81146200051657600080fd5b50565b610c2f80620005296000396000f3fe6080604052600436106100915760003560e01c806369d895751161005957806369d895751461014c5780638da5cb5b14610156578063b69ef8a814610181578063ed88c68e146101ac578063f3ccaac0146101b657610091565b80633ccfd60b1461009657806346c922d1146100a057806348b9ef40146100cb5780634a79d50c146100f65780634d012f5814610121575b600080fd5b61009e6101e1565b005b3480156100ac57600080fd5b506100b56103e9565b6040516100c29190610974565b60405180910390f35b3480156100d757600080fd5b506100e0610477565b6040516100ed91906109b6565b60405180910390f35b34801561010257600080fd5b5061010b61047d565b6040516101189190610974565b60405180910390f35b34801561012d57600080fd5b5061013661050b565b60405161014391906109b6565b60405180910390f35b610154610511565b005b34801561016257600080fd5b5061016b61057e565b6040516101789190610959565b60405180910390f35b34801561018d57600080fd5b506101966105a4565b6040516101a391906109b6565b60405180910390f35b6101b46105ac565b005b3480156101c257600080fd5b506101cb610851565b6040516101d89190610974565b60405180910390f35b6000600190505b60085481116103e6573373ffffffffffffffffffffffffffffffffffffffff166007600083815260200190815260200160002060009054906101000a900473ffffffffffffffffffffffffffffffffffffffff1673ffffffffffffffffffffffffffffffffffffffff1614156103d35760006007600083815260200190815260200160002060009054906101000a900473ffffffffffffffffffffffffffffffffffffffff1690506000600660008373ffffffffffffffffffffffffffffffffffffffff1673ffffffffffffffffffffffffffffffffffffffff1681526020019081526020016000205490508173ffffffffffffffffffffffffffffffffffffffff166108fc829081150290604051600060405180830381858888f1935050505015801561031a573d6000803e3d6000fd5b506000600660003373ffffffffffffffffffffffffffffffffffffffff1673ffffffffffffffffffffffffffffffffffffffff1681526020019081526020016000208190555060006007600085815260200190815260200160002060006101000a81548173ffffffffffffffffffffffffffffffffffffffff021916908373ffffffffffffffffffffffffffffffffffffffff16021790555080600560008282546103c59190610a43565b9250508190555050506103e6565b80806103de90610b18565b9150506101e8565b50565b600380546103f690610ae6565b80601f016020809104026020016040519081016040528092919081815260200182805461042290610ae6565b801561046f5780601f106104445761010080835404028352916020019161046f565b820191906000526020600020905b81548152906001019060200180831161045257829003601f168201915b505050505081565b60015481565b6000805461048a90610ae6565b80601f01602080910402602001604051908101604052809291908181526020018280546104b690610ae6565b80156105035780601f106104d857610100808354040283529160200191610503565b820191906000526020600020905b8154815290600101906020018083116104e657829003601f168201915b505050505081565b60055481565b600460009054906101000a900473ffffffffffffffffffffffffffffffffffffffff1673ffffffffffffffffffffffffffffffffffffffff166108fc6001549081150290604051600060405180830381858888f1935050505015801561057b573d6000803e3d6000fd5b50565b600460009054906101000a900473ffffffffffffffffffffffffffffffffffffffff1681565b600047905090565b600554600154116105f2576040517f08c379a00000000000000000000000000000000000000000000000000000000081526004016105e990610996565b60405180910390fd5b600154600554141561060757610606610511565b5b600060066000600460009054906101000a900473ffffffffffffffffffffffffffffffffffffffff1673ffffffffffffffffffffffffffffffffffffffff1673ffffffffffffffffffffffffffffffffffffffff168152602001908152602001600020541415610778573460066000600460009054906101000a900473ffffffffffffffffffffffffffffffffffffffff1673ffffffffffffffffffffffffffffffffffffffff1673ffffffffffffffffffffffffffffffffffffffff16815260200190815260200160002060008282546106e291906109ed565b92505081905550600460009054906101000a900473ffffffffffffffffffffffffffffffffffffffff16600760006008600081548092919061072390610b18565b91905055815260200190815260200160002060006101000a81548173ffffffffffffffffffffffffffffffffffffffff021916908373ffffffffffffffffffffffffffffffffffffffff1602179055506107f1565b3460066000600460009054906101000a900473ffffffffffffffffffffffffffffffffffffffff1673ffffffffffffffffffffffffffffffffffffffff1673ffffffffffffffffffffffffffffffffffffffff16815260200190815260200160002060008282546107e991906109ed565b925050819055505b346005600082825461080391906109ed565b9250508190555042343373ffffffffffffffffffffffffffffffffffffffff167fe6add99d06d9ad7fc456e746aa162eed6211c5002ef2dacdd67b8d2016822fba60405160405180910390a4565b6002805461085e90610ae6565b80601f016020809104026020016040519081016040528092919081815260200182805461088a90610ae6565b80156108d75780601f106108ac576101008083540402835291602001916108d7565b820191906000526020600020905b8154815290600101906020018083116108ba57829003601f168201915b505050505081565b6108e881610a77565b82525050565b60006108f9826109d1565b61090381856109dc565b9350610913818560208601610ab3565b61091c81610bbf565b840191505092915050565b60006109346018836109dc565b915061093f82610bd0565b602082019050919050565b61095381610aa9565b82525050565b600060208201905061096e60008301846108df565b92915050565b6000602082019050818103600083015261098e81846108ee565b905092915050565b600060208201905081810360008301526109af81610927565b9050919050565b60006020820190506109cb600083018461094a565b92915050565b600081519050919050565b600082825260208201905092915050565b60006109f882610aa9565b9150610a0383610aa9565b9250827fffffffffffffffffffffffffffffffffffffffffffffffffffffffffffffffff03821115610a3857610a37610b61565b5b828201905092915050565b6000610a4e82610aa9565b9150610a5983610aa9565b925082821015610a6c57610a6b610b61565b5b828203905092915050565b6000610a8282610a89565b9050919050565b600073ffffffffffffffffffffffffffffffffffffffff82169050919050565b6000819050919050565b60005b83811015610ad1578082015181840152602081019050610ab6565b83811115610ae0576000848401525b50505050565b60006002820490506001821680610afe57607f821691505b60208210811415610b1257610b11610b90565b5b50919050565b6000610b2382610aa9565b91507fffffffffffffffffffffffffffffffffffffffffffffffffffffffffffffffff821415610b5657610b55610b61565b5b600182019050919050565b7f4e487b7100000000000000000000000000000000000000000000000000000000600052601160045260246000fd5b7f4e487b7100000000000000000000000000000000000000000000000000000000600052602260045260246000fd5b6000601f19601f8301169050919050565b7f5271756972656420616d6f756e742066756c66696c6c6564000000000000000060008201525056fea2646970667358221220b9e5b37a9637aa1d17e2a109bf63ace912d8c5912d134d5a7e64ad7b6e696e0d64736f6c63430008040033a2646970667358221220c02da172ff38eb1d0f688d0488d40fc1a111b90e3e0efec58677f1ea266a86bf64736f6c63430008040033",
  "linkReferences": {},
  "deployedLinkReferences": {}
}