{
  "_format": "hh-sol-artifact-1",
  "contractName": "CampaignFactory",
  "sourceName": "contracts/Campaign.sol",
  "abi": [
    {
      "anonymous": false,
      "inputs": [
        {
          "indexed": false,
          "internalType": "string",
          "name": "title",
          "type": "string"
        },
        {
          "indexed": false,
          "internalType": "uint256",
          "name": "requiredAmount",
          "type": "uint256"
        },
        {
          "indexed": true,
          "internalType": "address",
          "name": "owner",
          "type": "address"
        },
        {
          "indexed": false,
          "internalType": "address",
          "name": "campaignAddress",
          "type": "address"
        },
        {
          "indexed": false,
          "internalType": "string",
          "name": "imgURI",
          "type": "string"
        },
        {
          "indexed": true,
          "internalType": "uint256",
          "name": "timestamp",
          "type": "uint256"
        },
        {
          "indexed": true,
          "internalType": "string",
          "name": "category",
          "type": "string"
        }
      ],
      "name": "campaignCreated",
      "type": "event"
    },
    {
      "inputs": [
        {
          "internalType": "uint256",
          "name": "",
          "type": "uint256"
        }
      ],
      "name": "campaignAddresses",
      "outputs": [
        {
          "internalType": "address",
          "name": "",
          "type": "address"
        }
      ],
      "stateMutability": "view",
      "type": "function"
    },
    {
      "inputs": [
        {
          "internalType": "string",
          "name": "_title",
          "type": "string"
        },
        {
          "internalType": "uint256",
          "name": "_requiredAmount",
          "type": "uint256"
        },
        {
          "internalType": "string",
          "name": "imgURI",
          "type": "string"
        },
        {
          "internalType": "string",
          "name": "storyURI",
          "type": "string"
        },
        {
          "internalType": "string",
          "name": "category",
          "type": "string"
        }
      ],
      "name": "createCampaign",
      "outputs": [],
      "stateMutability": "nonpayable",
      "type": "function"
    }
  ],
  "bytecode": "0x608060405234801561001057600080fd5b506116b4806100206000396000f3fe60806040523480156200001157600080fd5b50600436106200003a5760003560e01c80631b422e5f146200003f578063c658857d1462000075575b600080fd5b6200005d60048036038101906200005791906200036f565b62000095565b6040516200006c91906200044e565b60405180910390f35b6200009360048036038101906200008d919062000289565b620000d5565b005b60008181548110620000a657600080fd5b906000526020600020016000915054906101000a900473ffffffffffffffffffffffffffffffffffffffff1681565b600085858585604051620000e990620001f2565b620000f89493929190620004c6565b604051809103906000f08015801562000115573d6000803e3d6000fd5b5090506000819080600181540180825580915050600190039060005260206000200160009091909190916101000a81548173ffffffffffffffffffffffffffffffffffffffff021916908373ffffffffffffffffffffffffffffffffffffffff160217905550816040516200018b919062000435565b6040518091039020423373ffffffffffffffffffffffffffffffffffffffff167ff932d905365211c7f19fda44bcb55b1adbe63365f7cdae1c35ddcb3e38ed1d468989868a604051620001e294939291906200046b565b60405180910390a4505050505050565b610fbd80620006c283390190565b600062000217620002118462000551565b62000528565b9050828152602081018484840111156200023057600080fd5b6200023d848285620005ec565b509392505050565b600082601f8301126200025757600080fd5b81356200026984826020860162000200565b91505092915050565b6000813590506200028381620006a7565b92915050565b600080600080600060a08688031215620002a257600080fd5b600086013567ffffffffffffffff811115620002bd57600080fd5b620002cb8882890162000245565b9550506020620002de8882890162000272565b945050604086013567ffffffffffffffff811115620002fc57600080fd5b6200030a8882890162000245565b935050606086013567ffffffffffffffff8111156200032857600080fd5b620003368882890162000245565b925050608086013567ffffffffffffffff8111156200035457600080fd5b620003628882890162000245565b9150509295509295909350565b6000602082840312156200038257600080fd5b6000620003928482850162000272565b91505092915050565b620003a681620005ae565b82525050565b6000620003b98262000587565b620003c5818562000592565b9350620003d7818560208601620005fb565b620003e28162000696565b840191505092915050565b6000620003fa8262000587565b620004068185620005a3565b935062000418818560208601620005fb565b80840191505092915050565b6200042f81620005e2565b82525050565b6000620004438284620003ed565b915081905092915050565b60006020820190506200046560008301846200039b565b92915050565b60006080820190508181036000830152620004878187620003ac565b905062000498602083018662000424565b620004a760408301856200039b565b8181036060830152620004bb8184620003ac565b905095945050505050565b60006080820190508181036000830152620004e28187620003ac565b9050620004f3602083018662000424565b8181036040830152620005078185620003ac565b905081810360608301526200051d8184620003ac565b905095945050505050565b60006200053462000547565b905062000542828262000631565b919050565b6000604051905090565b600067ffffffffffffffff8211156200056f576200056e62000667565b5b6200057a8262000696565b9050602081019050919050565b600081519050919050565b600082825260208201905092915050565b600081905092915050565b6000620005bb82620005c2565b9050919050565b600073ffffffffffffffffffffffffffffffffffffffff82169050919050565b6000819050919050565b82818337600083830152505050565b60005b838110156200061b578082015181840152602081019050620005fe565b838111156200062b576000848401525b50505050565b6200063c8262000696565b810181811067ffffffffffffffff821117156200065e576200065d62000667565b5b80604052505050565b7f4e487b7100000000000000000000000000000000000000000000000000000000600052604160045260246000fd5b6000601f19601f8301169050919050565b620006b281620005e2565b8114620006be57600080fd5b5056fe60806040526040518060400160405280600d81526020017f43616d706169676e205465737400000000000000000000000000000000000000815250600090805190602001906200005192919062000119565b50600160085560405162000fbd38038062000fbd83398181016040528101906200007c919062000252565b83600090805190602001906200009492919062000119565b50826001819055508160029080519060200190620000b492919062000119565b508060039080519060200190620000cd92919062000119565b5033600460006101000a81548173ffffffffffffffffffffffffffffffffffffffff021916908373ffffffffffffffffffffffffffffffffffffffff160217905550505050506200049d565b8280546200012790620003a8565b90600052602060002090601f0160209004810192826200014b576000855562000197565b82601f106200016657805160ff191683800117855562000197565b8280016001018555821562000197579182015b828111156200019657825182559160200191906001019062000179565b5b509050620001a69190620001aa565b5090565b5b80821115620001c5576000816000905550600101620001ab565b5090565b6000620001e0620001da8462000332565b62000309565b905082815260208101848484011115620001f957600080fd5b6200020684828562000372565b509392505050565b600082601f8301126200022057600080fd5b815162000232848260208601620001c9565b91505092915050565b6000815190506200024c8162000483565b92915050565b600080600080608085870312156200026957600080fd5b600085015167ffffffffffffffff8111156200028457600080fd5b62000292878288016200020e565b9450506020620002a5878288016200023b565b935050604085015167ffffffffffffffff811115620002c357600080fd5b620002d1878288016200020e565b925050606085015167ffffffffffffffff811115620002ef57600080fd5b620002fd878288016200020e565b91505092959194509250565b60006200031562000328565b9050620003238282620003de565b919050565b6000604051905090565b600067ffffffffffffffff82111562000350576200034f62000443565b5b6200035b8262000472565b9050602081019050919050565b6000819050919050565b60005b838110156200039257808201518184015260208101905062000375565b83811115620003a2576000848401525b50505050565b60006002820490506001821680620003c157607f821691505b60208210811415620003d857620003d762000414565b5b50919050565b620003e98262000472565b810181811067ffffffffffffffff821117156200040b576200040a62000443565b5b80604052505050565b7f4e487b7100000000000000000000000000000000000000000000000000000000600052602260045260246000fd5b7f4e487b7100000000000000000000000000000000000000000000000000000000600052604160045260246000fd5b6000601f19601f8301169050919050565b6200048e8162000368565b81146200049a57600080fd5b50565b610b1080620004ad6000396000f3fe6080604052600436106100865760003560e01c80634d012f58116100595780634d012f58146101165780638da5cb5b14610141578063b69ef8a81461016c578063ed88c68e14610197578063f3ccaac0146101a157610086565b80633ccfd60b1461008b57806346c922d11461009557806348b9ef40146100c05780634a79d50c146100eb575b600080fd5b6100936101cc565b005b3480156100a157600080fd5b506100aa6103d4565b6040516100b79190610855565b60405180910390f35b3480156100cc57600080fd5b506100d5610462565b6040516100e29190610897565b60405180910390f35b3480156100f757600080fd5b50610100610468565b60405161010d9190610855565b60405180910390f35b34801561012257600080fd5b5061012b6104f6565b6040516101389190610897565b60405180910390f35b34801561014d57600080fd5b506101566104fc565b604051610163919061083a565b60405180910390f35b34801561017857600080fd5b50610181610522565b60405161018e9190610897565b60405180910390f35b61019f61052a565b005b3480156101ad57600080fd5b506101b6610732565b6040516101c39190610855565b60405180910390f35b6000600190505b60085481116103d1573373ffffffffffffffffffffffffffffffffffffffff166007600083815260200190815260200160002060009054906101000a900473ffffffffffffffffffffffffffffffffffffffff1673ffffffffffffffffffffffffffffffffffffffff1614156103be5760006007600083815260200190815260200160002060009054906101000a900473ffffffffffffffffffffffffffffffffffffffff1690506000600660008373ffffffffffffffffffffffffffffffffffffffff1673ffffffffffffffffffffffffffffffffffffffff1681526020019081526020016000205490508173ffffffffffffffffffffffffffffffffffffffff166108fc829081150290604051600060405180830381858888f19350505050158015610305573d6000803e3d6000fd5b506000600660003373ffffffffffffffffffffffffffffffffffffffff1673ffffffffffffffffffffffffffffffffffffffff1681526020019081526020016000208190555060006007600085815260200190815260200160002060006101000a81548173ffffffffffffffffffffffffffffffffffffffff021916908373ffffffffffffffffffffffffffffffffffffffff16021790555080600560008282546103b09190610924565b9250508190555050506103d1565b80806103c9906109f9565b9150506101d3565b50565b600380546103e1906109c7565b80601f016020809104026020016040519081016040528092919081815260200182805461040d906109c7565b801561045a5780601f1061042f5761010080835404028352916020019161045a565b820191906000526020600020905b81548152906001019060200180831161043d57829003601f168201915b505050505081565b60015481565b60008054610475906109c7565b80601f01602080910402602001604051908101604052809291908181526020018280546104a1906109c7565b80156104ee5780601f106104c3576101008083540402835291602001916104ee565b820191906000526020600020905b8154815290600101906020018083116104d157829003601f168201915b505050505081565b60055481565b600460009054906101000a900473ffffffffffffffffffffffffffffffffffffffff1681565b600047905090565b60055460015411610570576040517f08c379a000000000000000000000000000000000000000000000000000000000815260040161056790610877565b60405180910390fd5b6000600660003373ffffffffffffffffffffffffffffffffffffffff1673ffffffffffffffffffffffffffffffffffffffff16815260200190815260200160002054141561067b5734600660003373ffffffffffffffffffffffffffffffffffffffff1673ffffffffffffffffffffffffffffffffffffffff168152602001908152602001600020600082825461060791906108ce565b92505081905550336007600060086000815480929190610626906109f9565b91905055815260200190815260200160002060006101000a81548173ffffffffffffffffffffffffffffffffffffffff021916908373ffffffffffffffffffffffffffffffffffffffff1602179055506106d2565b34600660003373ffffffffffffffffffffffffffffffffffffffff1673ffffffffffffffffffffffffffffffffffffffff16815260200190815260200160002060008282546106ca91906108ce565b925050819055505b34600560008282546106e491906108ce565b9250508190555042343373ffffffffffffffffffffffffffffffffffffffff167fe6add99d06d9ad7fc456e746aa162eed6211c5002ef2dacdd67b8d2016822fba60405160405180910390a4565b6002805461073f906109c7565b80601f016020809104026020016040519081016040528092919081815260200182805461076b906109c7565b80156107b85780601f1061078d576101008083540402835291602001916107b8565b820191906000526020600020905b81548152906001019060200180831161079b57829003601f168201915b505050505081565b6107c981610958565b82525050565b60006107da826108b2565b6107e481856108bd565b93506107f4818560208601610994565b6107fd81610aa0565b840191505092915050565b60006108156018836108bd565b915061082082610ab1565b602082019050919050565b6108348161098a565b82525050565b600060208201905061084f60008301846107c0565b92915050565b6000602082019050818103600083015261086f81846107cf565b905092915050565b6000602082019050818103600083015261089081610808565b9050919050565b60006020820190506108ac600083018461082b565b92915050565b600081519050919050565b600082825260208201905092915050565b60006108d98261098a565b91506108e48361098a565b9250827fffffffffffffffffffffffffffffffffffffffffffffffffffffffffffffffff0382111561091957610918610a42565b5b828201905092915050565b600061092f8261098a565b915061093a8361098a565b92508282101561094d5761094c610a42565b5b828203905092915050565b60006109638261096a565b9050919050565b600073ffffffffffffffffffffffffffffffffffffffff82169050919050565b6000819050919050565b60005b838110156109b2578082015181840152602081019050610997565b838111156109c1576000848401525b50505050565b600060028204905060018216806109df57607f821691505b602082108114156109f3576109f2610a71565b5b50919050565b6000610a048261098a565b91507fffffffffffffffffffffffffffffffffffffffffffffffffffffffffffffffff821415610a3757610a36610a42565b5b600182019050919050565b7f4e487b7100000000000000000000000000000000000000000000000000000000600052601160045260246000fd5b7f4e487b7100000000000000000000000000000000000000000000000000000000600052602260045260246000fd5b6000601f19601f8301169050919050565b7f5271756972656420616d6f756e742066756c66696c6c6564000000000000000060008201525056fea26469706673582212207f26ba8d2f8af21c6d0dda35b855eba78300362d404b1259e1a1390ee811cf5764736f6c63430008040033a2646970667358221220eea93a9a03b71a5520e86e219f21ef2fd3d7a77a9d1fbaa46e2e805679860d2f64736f6c63430008040033",
  "linkReferences": {},
  "deployedLinkReferences": {}
}